{
  "contractName": "MetaTx",
  "abi": [
    {
      "constant": false,
      "inputs": [
        {
          "internalType": "bytes32",
          "name": "msgHash",
          "type": "bytes32"
        },
        {
          "internalType": "address",
          "name": "token1addr",
          "type": "address"
        },
        {
          "internalType": "uint256",
          "name": "token1amount",
          "type": "uint256"
        },
        {
          "internalType": "address",
          "name": "token2addr",
          "type": "address"
        },
        {
          "internalType": "uint256",
          "name": "token2amount",
          "type": "uint256"
        },
        {
          "internalType": "uint256",
          "name": "deadline",
          "type": "uint256"
        },
        {
          "internalType": "bytes",
          "name": "signature",
          "type": "bytes"
        }
      ],
      "name": "atomicSwap",
      "outputs": [],
      "payable": false,
      "stateMutability": "nonpayable",
      "type": "function"
    },
    {
      "constant": true,
      "inputs": [
        {
          "internalType": "address",
          "name": "signer",
          "type": "address"
        },
        {
          "internalType": "bytes32",
          "name": "msgHash",
          "type": "bytes32"
        },
        {
          "internalType": "bytes",
          "name": "signature",
          "type": "bytes"
        }
      ],
      "name": "isSignedBy",
      "outputs": [
        {
          "internalType": "bool",
          "name": "",
          "type": "bool"
        }
      ],
      "payable": false,
      "stateMutability": "pure",
      "type": "function"
    },
    {
      "constant": true,
      "inputs": [
        {
          "internalType": "bytes32",
          "name": "msgHash",
          "type": "bytes32"
        },
        {
          "internalType": "address",
          "name": "token1addr",
          "type": "address"
        },
        {
          "internalType": "uint256",
          "name": "token1amount",
          "type": "uint256"
        },
        {
          "internalType": "address",
          "name": "token2addr",
          "type": "address"
        },
        {
          "internalType": "uint256",
          "name": "token2amount",
          "type": "uint256"
        },
        {
          "internalType": "uint256",
          "name": "deadline",
          "type": "uint256"
        }
      ],
      "name": "hashIsCorrect",
      "outputs": [
        {
          "internalType": "bool",
          "name": "",
          "type": "bool"
        }
      ],
      "payable": false,
      "stateMutability": "pure",
      "type": "function"
    },
    {
      "constant": true,
      "inputs": [
        {
          "internalType": "bytes",
          "name": "arr",
          "type": "bytes"
        }
      ],
      "name": "extractMsgHash",
      "outputs": [
        {
          "internalType": "uint256",
          "name": "",
          "type": "uint256"
        },
        {
          "internalType": "bytes",
          "name": "",
          "type": "bytes"
        }
      ],
      "payable": false,
      "stateMutability": "pure",
      "type": "function"
    },
    {
      "constant": true,
      "inputs": [
        {
          "internalType": "bytes32",
          "name": "messageHash",
          "type": "bytes32"
        }
      ],
      "name": "ethSignedHash",
      "outputs": [
        {
          "internalType": "bytes32",
          "name": "",
          "type": "bytes32"
        }
      ],
      "payable": false,
      "stateMutability": "pure",
      "type": "function"
    },
    {
      "constant": true,
      "inputs": [
        {
          "internalType": "bytes32",
          "name": "messageHash",
          "type": "bytes32"
        },
        {
          "internalType": "bytes",
          "name": "signature",
          "type": "bytes"
        }
      ],
      "name": "recover",
      "outputs": [
        {
          "internalType": "address",
          "name": "",
          "type": "address"
        }
      ],
      "payable": false,
      "stateMutability": "pure",
      "type": "function"
    }
  ],
  "bytecode": "0x608060405234801561001057600080fd5b506109be806100206000396000f3fe608060405234801561001057600080fd5b50600436106100625760003560e01c806308456b3a1461006757806319045a25146100fe5780635cb7d478146101c55780636342127914610267578063ab2eba691461038a578063f1520932146103d0575b600080fd5b6100ea6004803603606081101561007d57600080fd5b6001600160a01b0382351691602081013591810190606081016040820135600160201b8111156100ac57600080fd5b8201836020820111156100be57600080fd5b803590602001918460018302840111600160201b831117156100df57600080fd5b5090925090506103ff565b604080519115158252519081900360200190f35b6101a96004803603604081101561011457600080fd5b81359190810190604081016020820135600160201b81111561013557600080fd5b82018360208201111561014757600080fd5b803590602001918460018302840111600160201b8311171561016857600080fd5b91908080601f016020809104026020016040519081016040528093929190818152602001838380828437600092019190915250929550610473945050505050565b604080516001600160a01b039092168252519081900360200190f35b610265600480360360e08110156101db57600080fd5b8135916001600160a01b03602082013581169260408301359260608101359092169160808101359160a0820135919081019060e0810160c0820135600160201b81111561022757600080fd5b82018360208201111561023957600080fd5b803590602001918460018302840111600160201b8311171561025a57600080fd5b50909250905061048e565b005b61030b6004803603602081101561027d57600080fd5b810190602081018135600160201b81111561029757600080fd5b8201836020820111156102a957600080fd5b803590602001918460018302840111600160201b831117156102ca57600080fd5b91908080601f01602080910402602001604051908101604052809392919081815260200183838082843760009201919091525092955061072b945050505050565b6040518083815260200180602001828103825283818151815260200191508051906020019080838360005b8381101561034e578181015183820152602001610336565b50505050905090810190601f16801561037b5780820380516001836020036101000a031916815260200191505b50935050505060405180910390f35b6100ea600480360360c08110156103a057600080fd5b508035906001600160a01b0360208201358116916040810135916060820135169060808101359060a001356107e2565b6103ed600480360360208110156103e657600080fd5b5035610843565b60408051918252519081900360200190f35b60008061040b8561084a565b9050856001600160a01b031661045f85858080601f016020809104026020016040519081016040528093929190818152602001838380828437600092019190915250869392505063ffffffff61089b169050565b6001600160a01b0316149695505050505050565b6000610485838363ffffffff61089b16565b90505b92915050565b60006104998961084a565b905060006104e584848080601f016020809104026020016040519081016040528093929190818152602001838380828437600092019190915250869392505063ffffffff61089b169050565b90506104f58a8a8a8a8a8a6107e2565b610546576040805162461bcd60e51b815260206004820181905260248201527f4861736820636f6d7075746174696f6e20646964206e6f742073756363656564604482015290519081900360640190fd5b844210610592576040805162461bcd60e51b8152602060048201526015602482015274151a1a5cc81cddd85c081a5cc81bdd5d19185d1959605a1b604482015290519081900360640190fd5b60008a81526020819052604090205460ff16156105f6576040805162461bcd60e51b815260206004820152601a60248201527f5468697320737761702077617320616c72656164792075736564000000000000604482015290519081900360640190fd5b60008a815260208190526040808220805460ff1916600117905580516362ad1b8360e01b81526001600160a01b038481166004830152336024830152604482018c905260a0606483015260a4820184905260e0608483015260e482018490529151918c16926362ad1b83926101248084019382900301818387803b15801561067d57600080fd5b505af1158015610691573d6000803e3d6000fd5b5050604080516362ad1b8360e01b81523360048201526001600160a01b038581166024830152604482018b905260a06064830152600060a4830181905260e0608484015260e483018190529251908c1694506362ad1b839350610124808301939282900301818387803b15801561070757600080fd5b505af115801561071b573d6000803e3d6000fd5b5050505050505050505050505050565b8051600090606090601c9081111561074957505081519050816107dd565b60608160ff168551036040519080825280601f01601f19166020018201604052801561077c576020820181803883390190505b50905060ff82165b85518110156107d45785818151811061079957fe5b602001015160f81c60f81b828460ff168303815181106107b557fe5b60200101906001600160f81b031916908160001a905350600101610784565b50845193509150505b915091565b604080516bffffffffffffffffffffffff19606097881b811660208084019190915260348301979097529490961b909316605486015260688501919091526088808501919091528151808503909101815260a8909301905281519101201490565b6000610488825b604080517f19457468657265756d205369676e6564204d6573736167653a0a333200000000602080830191909152603c8083019490945282518083039094018452605c909101909152815191012090565b600081516041146108ae57506000610488565b60208201516040830151606084015160001a7f7fffffffffffffffffffffffffffffff5d576e7357a4501ddfe92f46681b20a08211156108f45760009350505050610488565b8060ff16601b1415801561090c57508060ff16601c14155b1561091d5760009350505050610488565b6040805160008152602080820180845289905260ff8416828401526060820186905260808201859052915160019260a0808401939192601f1981019281900390910190855afa158015610974573d6000803e3d6000fd5b5050604051601f19015197965050505050505056fea265627a7a723158209614c88a26dc0e5b0266fd7c12357f6421554b53da07f1c79514d8b35823c94664736f6c634300050c0032",
  "source": "pragma solidity ^0.5.0;\n\nimport \"@openzeppelin/contracts/cryptography/ECDSA.sol\";\nimport \"@openzeppelin/contracts/token/ERC777/IERC777.sol\";\n\ncontract MetaTx  {\n    using ECDSA for bytes32; // Lib de OpenZeppelin con helpers para ecrecovery\n\n    mapping(bytes32 => bool) swaps; // Firmas usadas\n\n    // Con una firma vaĺida de Alice (signer), permite a Bob (msg.sender) intercambiar\n    // tokens de un contrato ERC777 (token1addr, token1amount) \n    // por tokens de otro contrato ERC777 (token2addr, token2amount)\n    // si no hemos pasado el deadline\n    function atomicSwap(\n        bytes32 msgHash, \n        address token1addr,\n        uint token1amount,\n        address token2addr,\n        uint token2amount,\n        uint deadline,\n        bytes calldata signature\n    ) external \n    {\n        // Primero, compruebo que la firma es válida\n        bytes32 ethHash = msgHash.toEthSignedMessageHash(); // Hago las parafernalias de las librerías de web3\n        address signer = ethHash.recover(signature); // Compruebo firma\n\n        // Luego compruebo que los parámetros son correctos y se corresponden\n        // con el hash firmado\n        require(\n            hashIsCorrect(\n                msgHash, \n                token1addr, \n                token1amount, \n                token2addr, \n                token2amount, \n                deadline\n            ),\n            \"Hash computation did not succeed\"\n        );\n        // Compruebo que el deadline no ha pasado\n        require(now < deadline, \"This swap is outdated\");\n        // Compruebo que la firma no se ha usado ya\n        require(!swaps[msgHash], \"This swap was already used\");\n\n        // Marco la firma como usada para que no se vuelva a usar en el futuro\n        swaps[msgHash] = true;\n\n        // Finalmente realizo la operación de intercambio:\n        // Tokens de Alice (signer) van a Bob (msg.sender)\n        // Tokens de Bob (msg.sender) van a Alice (signer)\n        IERC777(token1addr).operatorSend(signer, msg.sender, token1amount, \"\", \"\");\n        IERC777(token2addr).operatorSend(msg.sender, signer, token2amount, \"\", \"\");\n    }\n\n    // Comprueba que signature es el hash msgHash firmado por signer\n    function isSignedBy(\n        address signer, \n        bytes32 msgHash, \n        bytes calldata signature\n    ) \n        external \n        pure \n        returns (bool) \n    {\n        bytes32 ethHash = msgHash.toEthSignedMessageHash();\n        return (ethHash.recover(signature) == signer);\n    }\n\n\n    // Helpers: puedes ignorarlos, los he usado para comprobar algunas cosas\n    // mientras desarrollaba\n\n    function hashIsCorrect(\n        bytes32 msgHash, \n        address token1addr,\n        uint token1amount,\n        address token2addr,\n        uint token2amount,\n        uint deadline\n    ) \n        public\n        pure \n        returns (bool)\n    {\n        return msgHash == keccak256(\n            abi.encodePacked(\n                token1addr, \n                token1amount, \n                token2addr, \n                token2amount, \n                deadline\n            )\n        );\n    }\n\n    function extractMsgHash(bytes memory arr) public pure returns (uint, bytes memory) {\n\n        uint8 prefLen = 28;\n\n        if(arr.length < prefLen)\n            return (arr.length, arr);\n\n        bytes memory result = new bytes(arr.length - prefLen);\n\n        for(uint i = prefLen; i < arr.length; i++) {\n            result[i-prefLen] = arr[i];\n        }\n\n        return (arr.length, result);\n    }\n\n    function ethSignedHash(bytes32 messageHash) public pure returns(bytes32) {\n        return messageHash.toEthSignedMessageHash();\n    }\n\n    function recover(bytes32 messageHash, bytes memory signature) public pure returns(address) {\n        return messageHash.recover(signature);\n    }\n\n\n}\n",
  "sourcePath": "/home/mad/geodb/cajon/metatx_example/contracts/MetaTx.sol",
  "compiler": {
    "name": "solc",
    "version": "0.5.12+commit.7709ece9.Emscripten.clang"
  },
  "schemaVersion": "3.0.20",
  "updatedAt": "2020-01-17T12:12:01.709Z",
  "devdoc": {
    "methods": {}
  },
  "userdoc": {
    "methods": {}
  }
}