{
  "contractName": "USDT",
  "abi": [
    {
      "inputs": [
        {
          "internalType": "address[]",
          "name": "ops",
          "type": "address[]"
        }
      ],
      "payable": false,
      "stateMutability": "nonpayable",
      "type": "constructor"
    },
    {
      "anonymous": false,
      "inputs": [
        {
          "indexed": true,
          "internalType": "address",
          "name": "owner",
          "type": "address"
        },
        {
          "indexed": true,
          "internalType": "address",
          "name": "spender",
          "type": "address"
        },
        {
          "indexed": false,
          "internalType": "uint256",
          "name": "value",
          "type": "uint256"
        }
      ],
      "name": "Approval",
      "type": "event"
    },
    {
      "anonymous": false,
      "inputs": [
        {
          "indexed": true,
          "internalType": "address",
          "name": "operator",
          "type": "address"
        },
        {
          "indexed": true,
          "internalType": "address",
          "name": "tokenHolder",
          "type": "address"
        }
      ],
      "name": "AuthorizedOperator",
      "type": "event"
    },
    {
      "anonymous": false,
      "inputs": [
        {
          "indexed": true,
          "internalType": "address",
          "name": "operator",
          "type": "address"
        },
        {
          "indexed": true,
          "internalType": "address",
          "name": "from",
          "type": "address"
        },
        {
          "indexed": false,
          "internalType": "uint256",
          "name": "amount",
          "type": "uint256"
        },
        {
          "indexed": false,
          "internalType": "bytes",
          "name": "data",
          "type": "bytes"
        },
        {
          "indexed": false,
          "internalType": "bytes",
          "name": "operatorData",
          "type": "bytes"
        }
      ],
      "name": "Burned",
      "type": "event"
    },
    {
      "anonymous": false,
      "inputs": [
        {
          "indexed": true,
          "internalType": "address",
          "name": "operator",
          "type": "address"
        },
        {
          "indexed": true,
          "internalType": "address",
          "name": "to",
          "type": "address"
        },
        {
          "indexed": false,
          "internalType": "uint256",
          "name": "amount",
          "type": "uint256"
        },
        {
          "indexed": false,
          "internalType": "bytes",
          "name": "data",
          "type": "bytes"
        },
        {
          "indexed": false,
          "internalType": "bytes",
          "name": "operatorData",
          "type": "bytes"
        }
      ],
      "name": "Minted",
      "type": "event"
    },
    {
      "anonymous": false,
      "inputs": [
        {
          "indexed": true,
          "internalType": "address",
          "name": "operator",
          "type": "address"
        },
        {
          "indexed": true,
          "internalType": "address",
          "name": "tokenHolder",
          "type": "address"
        }
      ],
      "name": "RevokedOperator",
      "type": "event"
    },
    {
      "anonymous": false,
      "inputs": [
        {
          "indexed": true,
          "internalType": "address",
          "name": "operator",
          "type": "address"
        },
        {
          "indexed": true,
          "internalType": "address",
          "name": "from",
          "type": "address"
        },
        {
          "indexed": true,
          "internalType": "address",
          "name": "to",
          "type": "address"
        },
        {
          "indexed": false,
          "internalType": "uint256",
          "name": "amount",
          "type": "uint256"
        },
        {
          "indexed": false,
          "internalType": "bytes",
          "name": "data",
          "type": "bytes"
        },
        {
          "indexed": false,
          "internalType": "bytes",
          "name": "operatorData",
          "type": "bytes"
        }
      ],
      "name": "Sent",
      "type": "event"
    },
    {
      "anonymous": false,
      "inputs": [
        {
          "indexed": true,
          "internalType": "address",
          "name": "from",
          "type": "address"
        },
        {
          "indexed": true,
          "internalType": "address",
          "name": "to",
          "type": "address"
        },
        {
          "indexed": false,
          "internalType": "uint256",
          "name": "value",
          "type": "uint256"
        }
      ],
      "name": "Transfer",
      "type": "event"
    },
    {
      "constant": true,
      "inputs": [
        {
          "internalType": "address",
          "name": "holder",
          "type": "address"
        },
        {
          "internalType": "address",
          "name": "spender",
          "type": "address"
        }
      ],
      "name": "allowance",
      "outputs": [
        {
          "internalType": "uint256",
          "name": "",
          "type": "uint256"
        }
      ],
      "payable": false,
      "stateMutability": "view",
      "type": "function"
    },
    {
      "constant": false,
      "inputs": [
        {
          "internalType": "address",
          "name": "spender",
          "type": "address"
        },
        {
          "internalType": "uint256",
          "name": "value",
          "type": "uint256"
        }
      ],
      "name": "approve",
      "outputs": [
        {
          "internalType": "bool",
          "name": "",
          "type": "bool"
        }
      ],
      "payable": false,
      "stateMutability": "nonpayable",
      "type": "function"
    },
    {
      "constant": false,
      "inputs": [
        {
          "internalType": "address",
          "name": "operator",
          "type": "address"
        }
      ],
      "name": "authorizeOperator",
      "outputs": [],
      "payable": false,
      "stateMutability": "nonpayable",
      "type": "function"
    },
    {
      "constant": true,
      "inputs": [
        {
          "internalType": "address",
          "name": "tokenHolder",
          "type": "address"
        }
      ],
      "name": "balanceOf",
      "outputs": [
        {
          "internalType": "uint256",
          "name": "",
          "type": "uint256"
        }
      ],
      "payable": false,
      "stateMutability": "view",
      "type": "function"
    },
    {
      "constant": false,
      "inputs": [
        {
          "internalType": "uint256",
          "name": "amount",
          "type": "uint256"
        },
        {
          "internalType": "bytes",
          "name": "data",
          "type": "bytes"
        }
      ],
      "name": "burn",
      "outputs": [],
      "payable": false,
      "stateMutability": "nonpayable",
      "type": "function"
    },
    {
      "constant": true,
      "inputs": [],
      "name": "decimals",
      "outputs": [
        {
          "internalType": "uint8",
          "name": "",
          "type": "uint8"
        }
      ],
      "payable": false,
      "stateMutability": "pure",
      "type": "function"
    },
    {
      "constant": true,
      "inputs": [],
      "name": "defaultOperators",
      "outputs": [
        {
          "internalType": "address[]",
          "name": "",
          "type": "address[]"
        }
      ],
      "payable": false,
      "stateMutability": "view",
      "type": "function"
    },
    {
      "constant": true,
      "inputs": [],
      "name": "granularity",
      "outputs": [
        {
          "internalType": "uint256",
          "name": "",
          "type": "uint256"
        }
      ],
      "payable": false,
      "stateMutability": "view",
      "type": "function"
    },
    {
      "constant": true,
      "inputs": [
        {
          "internalType": "address",
          "name": "operator",
          "type": "address"
        },
        {
          "internalType": "address",
          "name": "tokenHolder",
          "type": "address"
        }
      ],
      "name": "isOperatorFor",
      "outputs": [
        {
          "internalType": "bool",
          "name": "",
          "type": "bool"
        }
      ],
      "payable": false,
      "stateMutability": "view",
      "type": "function"
    },
    {
      "constant": true,
      "inputs": [],
      "name": "name",
      "outputs": [
        {
          "internalType": "string",
          "name": "",
          "type": "string"
        }
      ],
      "payable": false,
      "stateMutability": "view",
      "type": "function"
    },
    {
      "constant": false,
      "inputs": [
        {
          "internalType": "address",
          "name": "account",
          "type": "address"
        },
        {
          "internalType": "uint256",
          "name": "amount",
          "type": "uint256"
        },
        {
          "internalType": "bytes",
          "name": "data",
          "type": "bytes"
        },
        {
          "internalType": "bytes",
          "name": "operatorData",
          "type": "bytes"
        }
      ],
      "name": "operatorBurn",
      "outputs": [],
      "payable": false,
      "stateMutability": "nonpayable",
      "type": "function"
    },
    {
      "constant": false,
      "inputs": [
        {
          "internalType": "address",
          "name": "sender",
          "type": "address"
        },
        {
          "internalType": "address",
          "name": "recipient",
          "type": "address"
        },
        {
          "internalType": "uint256",
          "name": "amount",
          "type": "uint256"
        },
        {
          "internalType": "bytes",
          "name": "data",
          "type": "bytes"
        },
        {
          "internalType": "bytes",
          "name": "operatorData",
          "type": "bytes"
        }
      ],
      "name": "operatorSend",
      "outputs": [],
      "payable": false,
      "stateMutability": "nonpayable",
      "type": "function"
    },
    {
      "constant": false,
      "inputs": [
        {
          "internalType": "address",
          "name": "operator",
          "type": "address"
        }
      ],
      "name": "revokeOperator",
      "outputs": [],
      "payable": false,
      "stateMutability": "nonpayable",
      "type": "function"
    },
    {
      "constant": false,
      "inputs": [
        {
          "internalType": "address",
          "name": "recipient",
          "type": "address"
        },
        {
          "internalType": "uint256",
          "name": "amount",
          "type": "uint256"
        },
        {
          "internalType": "bytes",
          "name": "data",
          "type": "bytes"
        }
      ],
      "name": "send",
      "outputs": [],
      "payable": false,
      "stateMutability": "nonpayable",
      "type": "function"
    },
    {
      "constant": true,
      "inputs": [],
      "name": "symbol",
      "outputs": [
        {
          "internalType": "string",
          "name": "",
          "type": "string"
        }
      ],
      "payable": false,
      "stateMutability": "view",
      "type": "function"
    },
    {
      "constant": true,
      "inputs": [],
      "name": "totalSupply",
      "outputs": [
        {
          "internalType": "uint256",
          "name": "",
          "type": "uint256"
        }
      ],
      "payable": false,
      "stateMutability": "view",
      "type": "function"
    },
    {
      "constant": false,
      "inputs": [
        {
          "internalType": "address",
          "name": "recipient",
          "type": "address"
        },
        {
          "internalType": "uint256",
          "name": "amount",
          "type": "uint256"
        }
      ],
      "name": "transfer",
      "outputs": [
        {
          "internalType": "bool",
          "name": "",
          "type": "bool"
        }
      ],
      "payable": false,
      "stateMutability": "nonpayable",
      "type": "function"
    },
    {
      "constant": false,
      "inputs": [
        {
          "internalType": "address",
          "name": "holder",
          "type": "address"
        },
        {
          "internalType": "address",
          "name": "recipient",
          "type": "address"
        },
        {
          "internalType": "uint256",
          "name": "amount",
          "type": "uint256"
        }
      ],
      "name": "transferFrom",
      "outputs": [
        {
          "internalType": "bool",
          "name": "",
          "type": "bool"
        }
      ],
      "payable": false,
      "stateMutability": "nonpayable",
      "type": "function"
    },
    {
      "constant": false,
      "inputs": [
        {
          "internalType": "uint256",
          "name": "amount",
          "type": "uint256"
        }
      ],
      "name": "mint",
      "outputs": [],
      "payable": false,
      "stateMutability": "nonpayable",
      "type": "function"
    }
  ],
  "bytecode": "0x60806040523480156200001157600080fd5b506040516200256838038062002568833981810160405260208110156200003757600080fd5b81019080805160405193929190846401000000008211156200005857600080fd5b9083019060208201858111156200006e57600080fd5b82518660208202830111640100000000821117156200008c57600080fd5b82525081516020918201928201910280838360005b83811015620000bb578181015183820152602001620000a1565b5050505090910160408181018152600a82527f555344205465746865720000000000000000000000000000000000000000000060208084019182528251808401909352600483527f55534454000000000000000000000000000000000000000000000000000000009083015282519296509094508693506200014192506002916200035c565b508151620001579060039060208501906200035c565b5080516200016d906004906020840190620003e1565b5060005b600454811015620001cd57600160056000600484815481106200019057fe5b6000918252602080832091909101546001600160a01b031683528201929092526040019020805460ff191691151591909117905560010162000171565b50604080517f455243373737546f6b656e0000000000000000000000000000000000000000008152815190819003600b0181207f29965a1d0000000000000000000000000000000000000000000000000000000082523060048301819052602483019190915260448201529051731820a4b7618bde71dce8cdc73aab6c95905fad24916329965a1d91606480830192600092919082900301818387803b1580156200027757600080fd5b505af11580156200028c573d6000803e3d6000fd5b5050604080517f4552433230546f6b656e000000000000000000000000000000000000000000008152815190819003600a0181207f29965a1d0000000000000000000000000000000000000000000000000000000082523060048301819052602483019190915260448201529051731820a4b7618bde71dce8cdc73aab6c95905fad2493506329965a1d9250606480830192600092919082900301818387803b1580156200033957600080fd5b505af11580156200034e573d6000803e3d6000fd5b50505050505050506200048e565b828054600181600116156101000203166002900490600052602060002090601f016020900481019282601f106200039f57805160ff1916838001178555620003cf565b82800160010185558215620003cf579182015b82811115620003cf578251825591602001919060010190620003b2565b50620003dd92915062000447565b5090565b82805482825590600052602060002090810192821562000439579160200282015b828111156200043957825182546001600160a01b0319166001600160a01b0390911617825560209092019160019091019062000402565b50620003dd92915062000467565b6200046491905b80821115620003dd57600081556001016200044e565b90565b6200046491905b80821115620003dd5780546001600160a01b03191681556001016200046e565b6120ca806200049e6000396000f3fe608060405234801561001057600080fd5b50600436106101215760003560e01c8063959b8c3f116100ad578063d95b637111610071578063d95b6371146104b1578063dd62ed3e146104df578063fad8b32a1461050d578063fc673c4f14610533578063fe9d93031461060657610121565b8063959b8c3f146103b757806395d89b41146103dd5780639bd9bbc6146103e5578063a0712d6814610468578063a9059cbb1461048557610121565b806323b872dd116100f457806323b872dd14610255578063313ce5671461028b578063556f0dc7146102a957806362ad1b83146102b157806370a082311461039157610121565b806306e485381461012657806306fdde031461017e578063095ea7b3146101fb57806318160ddd1461023b575b600080fd5b61012e61067b565b60408051602080825283518183015283519192839290830191858101910280838360005b8381101561016a578181015183820152602001610152565b505050509050019250505060405180910390f35b6101866106dd565b6040805160208082528351818301528351919283929083019185019080838360005b838110156101c05781810151838201526020016101a8565b50505050905090810190601f1680156101ed5780820380516001836020036101000a031916815260200191505b509250505060405180910390f35b6102276004803603604081101561021157600080fd5b506001600160a01b038135169060200135610767565b604080519115158252519081900360200190f35b610243610789565b60408051918252519081900360200190f35b6102276004803603606081101561026b57600080fd5b506001600160a01b0381358116916020810135909116906040013561078f565b610293610912565b6040805160ff9092168252519081900360200190f35b610243610917565b61038f600480360360a08110156102c757600080fd5b6001600160a01b03823581169260208101359091169160408201359190810190608081016060820135600160201b81111561030157600080fd5b82018360208201111561031357600080fd5b803590602001918460018302840111600160201b8311171561033457600080fd5b919390929091602081019035600160201b81111561035157600080fd5b82018360208201111561036357600080fd5b803590602001918460018302840111600160201b8311171561038457600080fd5b50909250905061091c565b005b610243600480360360208110156103a757600080fd5b50356001600160a01b03166109f2565b61038f600480360360208110156103cd57600080fd5b50356001600160a01b0316610a0d565b610186610b59565b61038f600480360360608110156103fb57600080fd5b6001600160a01b0382351691602081013591810190606081016040820135600160201b81111561042a57600080fd5b82018360208201111561043c57600080fd5b803590602001918460018302840111600160201b8311171561045d57600080fd5b509092509050610bba565b61038f6004803603602081101561047e57600080fd5b5035610c22565b6102276004803603604081101561049b57600080fd5b506001600160a01b038135169060200135610c50565b610227600480360360408110156104c757600080fd5b506001600160a01b0381358116916020013516610d29565b610243600480360360408110156104f557600080fd5b506001600160a01b0381358116916020013516610dcb565b61038f6004803603602081101561052357600080fd5b50356001600160a01b0316610df6565b61038f6004803603608081101561054957600080fd5b6001600160a01b0382351691602081013591810190606081016040820135600160201b81111561057857600080fd5b82018360208201111561058a57600080fd5b803590602001918460018302840111600160201b831117156105ab57600080fd5b919390929091602081019035600160201b8111156105c857600080fd5b8201836020820111156105da57600080fd5b803590602001918460018302840111600160201b831117156105fb57600080fd5b509092509050610f42565b61038f6004803603604081101561061c57600080fd5b81359190810190604081016020820135600160201b81111561063d57600080fd5b82018360208201111561064f57600080fd5b803590602001918460018302840111600160201b8311171561067057600080fd5b509092509050611013565b606060048054806020026020016040519081016040528092919081815260200182805480156106d357602002820191906000526020600020905b81546001600160a01b031681526001909101906020018083116106b5575b5050505050905090565b60028054604080516020601f60001961010060018716150201909416859004938401819004810282018101909252828152606093909290918301828280156106d35780601f1061073b576101008083540402835291602001916106d3565b820191906000526020600020905b81548152906001019060200180831161074957509395945050505050565b600080610772611076565b905061077f81858561107a565b5060019392505050565b60015490565b60006001600160a01b0383166107d65760405162461bcd60e51b8152600401808060200182810382526024815260200180611fb16024913960400191505060405180910390fd5b6001600160a01b03841661081b5760405162461bcd60e51b815260040180806020018281038252602681526020018061202a6026913960400191505060405180910390fd5b6000610825611076565b9050610853818686866040518060200160405280600081525060405180602001604052806000815250611121565b61087f818686866040518060200160405280600081525060405180602001604052806000815250611368565b6108d985826108d486604051806060016040528060298152602001612001602991396001600160a01b03808c166000908152600860209081526040808320938b1683529290522054919063ffffffff61158116565b61107a565b6109078186868660405180602001604052806000815250604051806020016040528060008152506000611618565b506001949350505050565b601290565b600190565b61092d610927611076565b88610d29565b6109685760405162461bcd60e51b815260040180806020018281038252602c815260200180611fd5602c913960400191505060405180910390fd5b6109e9610973611076565b88888888888080601f01602080910402602001604051908101604052809392919081815260200183838082843760009201919091525050604080516020601f8c018190048102820181019092528a815292508a9150899081908401838280828437600092019190915250600192506118b8915050565b50505050505050565b6001600160a01b031660009081526020819052604090205490565b806001600160a01b0316610a1f611076565b6001600160a01b03161415610a655760405162461bcd60e51b8152600401808060200182810382526024815260200180611f1f6024913960400191505060405180910390fd5b6001600160a01b03811660009081526005602052604090205460ff1615610ac85760076000610a92611076565b6001600160a01b03908116825260208083019390935260409182016000908120918516815292529020805460ff19169055610b0f565b600160066000610ad6611076565b6001600160a01b03908116825260208083019390935260409182016000908120918616815292529020805460ff19169115159190911790555b610b17611076565b6001600160a01b0316816001600160a01b03167ff4caeb2d6ca8932a215a353d0703c326ec2d81fc68170f320eb2ab49e9df61f960405160405180910390a350565b60038054604080516020601f60026000196101006001881615020190951694909404938401819004810282018101909252828152606093909290918301828280156106d35780601f1061073b576101008083540402835291602001916106d3565b610c1c610bc5611076565b610bcd611076565b868686868080601f016020809104026020016040519081016040528093929190818152602001838380828437600092018290525060408051602081019091529081529250600191506118b89050565b50505050565b610c4d3333836040518060200160405280600081525060405180602001604052806000815250611983565b50565b60006001600160a01b038316610c975760405162461bcd60e51b8152600401808060200182810382526024815260200180611fb16024913960400191505060405180910390fd5b6000610ca1611076565b9050610ccf818286866040518060200160405280600081525060405180602001604052806000815250611121565b610cfb818286866040518060200160405280600081525060405180602001604052806000815250611368565b61077f8182868660405180602001604052806000815250604051806020016040528060008152506000611618565b6000816001600160a01b0316836001600160a01b03161480610d9457506001600160a01b03831660009081526005602052604090205460ff168015610d9457506001600160a01b0380831660009081526007602090815260408083209387168352929052205460ff16155b80610dc457506001600160a01b0380831660009081526006602090815260408083209387168352929052205460ff165b9392505050565b6001600160a01b03918216600090815260086020908152604080832093909416825291909152205490565b610dfe611076565b6001600160a01b0316816001600160a01b03161415610e4e5760405162461bcd60e51b8152600401808060200182810382526021815260200180611f436021913960400191505060405180910390fd5b6001600160a01b03811660009081526005602052604090205460ff1615610eba57600160076000610e7d611076565b6001600160a01b03908116825260208083019390935260409182016000908120918616815292529020805460ff1916911515919091179055610ef8565b60066000610ec6611076565b6001600160a01b03908116825260208083019390935260409182016000908120918516815292529020805460ff191690555b610f00611076565b6001600160a01b0316816001600160a01b03167f50546e66e5f44d728365dc3908c63bc5cfeeab470722c1677e3073a6ac294aa160405160405180910390a350565b610f53610f4d611076565b87610d29565b610f8e5760405162461bcd60e51b815260040180806020018281038252602c815260200180611fd5602c913960400191505060405180910390fd5b61100b610f99611076565b878787878080601f01602080910402602001604051908101604052809392919081815260200183838082843760009201919091525050604080516020601f8b018190048102820181019092528981529250899150889081908401838280828437600092019190915250611bae92505050565b505050505050565b61107161101e611076565b611026611076565b8585858080601f016020809104026020016040519081016040528093929190818152602001838380828437600092018290525060408051602081019091529081529250611bae915050565b505050565b3390565b6001600160a01b0382166110bf5760405162461bcd60e51b81526004018080602001828103825260238152602001806120736023913960400191505060405180910390fd5b6001600160a01b03808416600081815260086020908152604080832094871680845294825291829020859055815185815291517f8c5be1e5ebec7d5bd14f71427d1e84f3dd0314c0f7b2291e5b200ac8c7c3b9259281900390910190a3505050565b6040805163555ddc6560e11b81526001600160a01b03871660048201527f29ddb589b1fb5fc7cf394961c1adf5f8c6454761adf795e67fe149f658abe89560248201529051600091731820a4b7618bde71dce8cdc73aab6c95905fad249163aabbb8ca91604480820192602092909190829003018186803b1580156111a557600080fd5b505afa1580156111b9573d6000803e3d6000fd5b505050506040513d60208110156111cf57600080fd5b505190506001600160a01b038116156109e957806001600160a01b03166375ab97828888888888886040518763ffffffff1660e01b815260040180876001600160a01b03166001600160a01b03168152602001866001600160a01b03166001600160a01b03168152602001856001600160a01b03166001600160a01b031681526020018481526020018060200180602001838103835285818151815260200191508051906020019080838360005b8381101561129557818101518382015260200161127d565b50505050905090810190601f1680156112c25780820380516001836020036101000a031916815260200191505b50838103825284518152845160209182019186019080838360005b838110156112f55781810151838201526020016112dd565b50505050905090810190601f1680156113225780820380516001836020036101000a031916815260200191505b5098505050505050505050600060405180830381600087803b15801561134757600080fd5b505af115801561135b573d6000803e3d6000fd5b5050505050505050505050565b6113ab83604051806060016040528060278152602001611ed6602791396001600160a01b038816600090815260208190526040902054919063ffffffff61158116565b6001600160a01b0380871660009081526020819052604080822093909355908616815220546113e0908463ffffffff611ddb16565b600080866001600160a01b03166001600160a01b0316815260200190815260200160002081905550836001600160a01b0316856001600160a01b0316876001600160a01b03167f06b541ddaa720db2b10a4d0cdac39b8d360425fc073085fac19bc82614677987868686604051808481526020018060200180602001838103835285818151815260200191508051906020019080838360005b83811015611491578181015183820152602001611479565b50505050905090810190601f1680156114be5780820380516001836020036101000a031916815260200191505b50838103825284518152845160209182019186019080838360005b838110156114f15781810151838201526020016114d9565b50505050905090810190601f16801561151e5780820380516001836020036101000a031916815260200191505b509550505050505060405180910390a4836001600160a01b0316856001600160a01b03167fddf252ad1be2c89b69c2b068fc378daa952ba7f163c4a11628f55a4df523b3ef856040518082815260200191505060405180910390a3505050505050565b600081848411156116105760405162461bcd60e51b81526004018080602001828103825283818151815260200191508051906020019080838360005b838110156115d55781810151838201526020016115bd565b50505050905090810190601f1680156116025780820380516001836020036101000a031916815260200191505b509250505060405180910390fd5b505050900390565b6040805163555ddc6560e11b81526001600160a01b03871660048201527fb281fc8c12954d22544db45de3159a39272895b169a852b314f9cc762e44c53b60248201529051600091731820a4b7618bde71dce8cdc73aab6c95905fad249163aabbb8ca91604480820192602092909190829003018186803b15801561169c57600080fd5b505afa1580156116b0573d6000803e3d6000fd5b505050506040513d60208110156116c657600080fd5b505190506001600160a01b0381161561185a57806001600160a01b03166223de298989898989896040518763ffffffff1660e01b815260040180876001600160a01b03166001600160a01b03168152602001866001600160a01b03166001600160a01b03168152602001856001600160a01b03166001600160a01b031681526020018481526020018060200180602001838103835285818151815260200191508051906020019080838360005b8381101561178b578181015183820152602001611773565b50505050905090810190601f1680156117b85780820380516001836020036101000a031916815260200191505b50838103825284518152845160209182019186019080838360005b838110156117eb5781810151838201526020016117d3565b50505050905090810190601f1680156118185780820380516001836020036101000a031916815260200191505b5098505050505050505050600060405180830381600087803b15801561183d57600080fd5b505af1158015611851573d6000803e3d6000fd5b505050506118ae565b81156118ae57611872866001600160a01b0316611e35565b156118ae5760405162461bcd60e51b815260040180806020018281038252604d815260200180611f64604d913960600191505060405180910390fd5b5050505050505050565b6001600160a01b0386166118fd5760405162461bcd60e51b8152600401808060200182810382526022815260200180611eb46022913960400191505060405180910390fd5b6001600160a01b038516611958576040805162461bcd60e51b815260206004820181905260248201527f4552433737373a2073656e6420746f20746865207a65726f2061646472657373604482015290519081900360640190fd5b611966878787878787611121565b611974878787878787611368565b6109e987878787878787611618565b6001600160a01b0384166119de576040805162461bcd60e51b815260206004820181905260248201527f4552433737373a206d696e7420746f20746865207a65726f2061646472657373604482015290519081900360640190fd5b6001546119f1908463ffffffff611ddb16565b6001556001600160a01b038416600090815260208190526040902054611a1d908463ffffffff611ddb16565b6001600160a01b038516600090815260208190526040812091909155611a4a908690868686866001611618565b836001600160a01b0316856001600160a01b03167f2fe5be0146f74c5bce36c0b80911af6c7d86ff27e89d5cfa61fc681327954e5d858585604051808481526020018060200180602001838103835285818151815260200191508051906020019080838360005b83811015611ac9578181015183820152602001611ab1565b50505050905090810190601f168015611af65780820380516001836020036101000a031916815260200191505b50838103825284518152845160209182019186019080838360005b83811015611b29578181015183820152602001611b11565b50505050905090810190601f168015611b565780820380516001836020036101000a031916815260200191505b509550505050505060405180910390a36040805184815290516001600160a01b038616916000917fddf252ad1be2c89b69c2b068fc378daa952ba7f163c4a11628f55a4df523b3ef9181900360200190a35050505050565b6001600160a01b038416611bf35760405162461bcd60e51b8152600401808060200182810382526022815260200180611efd6022913960400191505060405180910390fd5b611c0285856000868686611121565b611c4583604051806060016040528060238152602001612050602391396001600160a01b038716600090815260208190526040902054919063ffffffff61158116565b6001600160a01b038516600090815260208190526040902055600154611c71908463ffffffff611e7116565b600181905550836001600160a01b0316856001600160a01b03167fa78a9be3a7b862d26933ad85fb11d80ef66b8f972d7cbba06621d583943a4098858585604051808481526020018060200180602001838103835285818151815260200191508051906020019080838360005b83811015611cf6578181015183820152602001611cde565b50505050905090810190601f168015611d235780820380516001836020036101000a031916815260200191505b50838103825284518152845160209182019186019080838360005b83811015611d56578181015183820152602001611d3e565b50505050905090810190601f168015611d835780820380516001836020036101000a031916815260200191505b509550505050505060405180910390a36040805184815290516000916001600160a01b038716917fddf252ad1be2c89b69c2b068fc378daa952ba7f163c4a11628f55a4df523b3ef9181900360200190a35050505050565b600082820183811015610dc4576040805162461bcd60e51b815260206004820152601b60248201527f536166654d6174683a206164646974696f6e206f766572666c6f770000000000604482015290519081900360640190fd5b6000813f7fc5d2460186f7233c927e7db2dcc703c0e500b653ca82273b7bfad8045d85a4708115801590611e695750808214155b949350505050565b6000610dc483836040518060400160405280601e81526020017f536166654d6174683a207375627472616374696f6e206f766572666c6f77000081525061158156fe4552433737373a2073656e642066726f6d20746865207a65726f20616464726573734552433737373a207472616e7366657220616d6f756e7420657863656564732062616c616e63654552433737373a206275726e2066726f6d20746865207a65726f20616464726573734552433737373a20617574686f72697a696e672073656c66206173206f70657261746f724552433737373a207265766f6b696e672073656c66206173206f70657261746f724552433737373a20746f6b656e20726563697069656e7420636f6e747261637420686173206e6f20696d706c656d656e74657220666f7220455243373737546f6b656e73526563697069656e744552433737373a207472616e7366657220746f20746865207a65726f20616464726573734552433737373a2063616c6c6572206973206e6f7420616e206f70657261746f7220666f7220686f6c6465724552433737373a207472616e7366657220616d6f756e74206578636565647320616c6c6f77616e63654552433737373a207472616e736665722066726f6d20746865207a65726f20616464726573734552433737373a206275726e20616d6f756e7420657863656564732062616c616e63654552433737373a20617070726f766520746f20746865207a65726f2061646472657373a265627a7a72315820bbc464d250bd50ae99ac77c68f1505afe07efcdc78356cf376f67bd2ec15aa0b64736f6c634300050c0032",
  "source": "pragma solidity ^0.5.0;\n\nimport \"@openzeppelin/contracts/token/ERC777/ERC777.sol\";\n\ncontract USDT is ERC777 {\n\n    constructor(address[] memory ops) ERC777 (\"USD Tether\", \"USDT\", ops) public{}\n\n    function mint(uint amount) public {\n        _mint(msg.sender, msg.sender, amount, \"\", \"\");\n    }\n}\n",
  "sourcePath": "/home/mad/geodb/cajon/metatx_example/contracts/USDT.sol",
  "compiler": {
    "name": "solc",
    "version": "0.5.12+commit.7709ece9.Emscripten.clang"
  },
  "schemaVersion": "3.0.20",
  "updatedAt": "2020-01-17T10:41:16.655Z",
  "devdoc": {
    "methods": {
      "allowance(address,address)": {
        "details": "See {IERC20-allowance}.     * Note that operator and allowance concepts are orthogonal: operators may not have allowance, and accounts with allowance may not be operators themselves."
      },
      "approve(address,uint256)": {
        "details": "See {IERC20-approve}.     * Note that accounts cannot have allowance issued by their operators."
      },
      "authorizeOperator(address)": {
        "details": "See {IERC777-authorizeOperator}."
      },
      "balanceOf(address)": {
        "details": "Returns the amount of tokens owned by an account (`tokenHolder`)."
      },
      "burn(uint256,bytes)": {
        "details": "See {IERC777-burn}.     * Also emits a {Transfer} event for ERC20 compatibility."
      },
      "decimals()": {
        "details": "See {ERC20Detailed-decimals}.     * Always returns 18, as per the [ERC777 EIP](https://eips.ethereum.org/EIPS/eip-777#backward-compatibility)."
      },
      "defaultOperators()": {
        "details": "See {IERC777-defaultOperators}."
      },
      "granularity()": {
        "details": "See {IERC777-granularity}.     * This implementation always returns `1`."
      },
      "isOperatorFor(address,address)": {
        "details": "See {IERC777-isOperatorFor}."
      },
      "name()": {
        "details": "See {IERC777-name}."
      },
      "operatorBurn(address,uint256,bytes,bytes)": {
        "details": "See {IERC777-operatorBurn}.     * Emits {Burned} and {Transfer} events."
      },
      "operatorSend(address,address,uint256,bytes,bytes)": {
        "details": "See {IERC777-operatorSend}.     * Emits {Sent} and {Transfer} events."
      },
      "revokeOperator(address)": {
        "details": "See {IERC777-revokeOperator}."
      },
      "send(address,uint256,bytes)": {
        "details": "See {IERC777-send}.     * Also emits a {Transfer} event for ERC20 compatibility."
      },
      "symbol()": {
        "details": "See {IERC777-symbol}."
      },
      "totalSupply()": {
        "details": "See {IERC777-totalSupply}."
      },
      "transfer(address,uint256)": {
        "details": "See {IERC20-transfer}.     * Unlike `send`, `recipient` is _not_ required to implement the {IERC777Recipient} interface if it is a contract.     * Also emits a {Sent} event."
      },
      "transferFrom(address,address,uint256)": {
        "details": "See {IERC20-transferFrom}.    * Note that operator and allowance concepts are orthogonal: operators cannot call `transferFrom` (unless they have allowance), and accounts with allowance cannot call `operatorSend` (unless they are operators).    * Emits {Sent}, {Transfer} and {Approval} events."
      }
    }
  },
  "userdoc": {
    "methods": {}
  }
}